{
  "name": "RsuReputation",
  "abi": [
    {
      "inputs": [],
      "stateMutability": "payable",
      "type": "constructor"
    },
    {
      "anonymous": false,
      "inputs": [
        {
          "indexed": false,
          "internalType": "string",
          "name": "who",
          "type": "string"
        },
        {
          "indexed": false,
          "internalType": "int128",
          "name": "valor",
          "type": "int128"
        }
      ],
      "name": "Valor",
      "type": "event"
    },
    {
      "inputs": [],
      "name": "RepActual",
      "outputs": [
        {
          "internalType": "int128",
          "name": "",
          "type": "int128"
        }
      ],
      "stateMutability": "view",
      "type": "function"
    },
    {
      "inputs": [],
      "name": "owner",
      "outputs": [
        {
          "internalType": "address",
          "name": "",
          "type": "address"
        }
      ],
      "stateMutability": "view",
      "type": "function"
    },
    {
      "inputs": [
        {
          "internalType": "address",
          "name": "",
          "type": "address"
        },
        {
          "internalType": "uint256",
          "name": "",
          "type": "uint256"
        }
      ],
      "name": "reputations",
      "outputs": [
        {
          "internalType": "address",
          "name": "car",
          "type": "address"
        },
        {
          "internalType": "int128",
          "name": "reputationValue",
          "type": "int128"
        }
      ],
      "stateMutability": "view",
      "type": "function"
    },
    {
      "inputs": [
        {
          "internalType": "uint256",
          "name": "",
          "type": "uint256"
        }
      ],
      "name": "statusEvent",
      "outputs": [
        {
          "internalType": "string",
          "name": "",
          "type": "string"
        }
      ],
      "stateMutability": "view",
      "type": "function"
    },
    {
      "inputs": [
        {
          "internalType": "uint256",
          "name": "",
          "type": "uint256"
        }
      ],
      "name": "wms",
      "outputs": [
        {
          "internalType": "uint256",
          "name": "idMsg",
          "type": "uint256"
        },
        {
          "internalType": "address",
          "name": "assig",
          "type": "address"
        },
        {
          "internalType": "uint256",
          "name": "idAlert",
          "type": "uint256"
        },
        {
          "internalType": "bool",
          "name": "active",
          "type": "bool"
        },
        {
          "internalType": "uint256",
          "name": "timstamp",
          "type": "uint256"
        }
      ],
      "stateMutability": "view",
      "type": "function"
    },
    {
      "inputs": [
        {
          "internalType": "uint256",
          "name": "",
          "type": "uint256"
        }
      ],
      "name": "wvmCount",
      "outputs": [
        {
          "internalType": "uint256",
          "name": "",
          "type": "uint256"
        }
      ],
      "stateMutability": "view",
      "type": "function"
    },
    {
      "inputs": [
        {
          "internalType": "uint256",
          "name": "",
          "type": "uint256"
        },
        {
          "internalType": "uint256",
          "name": "",
          "type": "uint256"
        }
      ],
      "name": "wvms",
      "outputs": [
        {
          "internalType": "address",
          "name": "car",
          "type": "address"
        },
        {
          "internalType": "uint256",
          "name": "idMsg",
          "type": "uint256"
        },
        {
          "internalType": "address",
          "name": "assig",
          "type": "address"
        },
        {
          "internalType": "uint256",
          "name": "idAlert",
          "type": "uint256"
        },
        {
          "internalType": "bool",
          "name": "ack",
          "type": "bool"
        },
        {
          "internalType": "uint256",
          "name": "timstamp",
          "type": "uint256"
        }
      ],
      "stateMutability": "view",
      "type": "function"
    },
    {
      "inputs": [
        {
          "internalType": "uint256",
          "name": "_idMsg",
          "type": "uint256"
        },
        {
          "internalType": "uint256",
          "name": "_idAlert",
          "type": "uint256"
        }
      ],
      "name": "registerWM",
      "outputs": [],
      "stateMutability": "nonpayable",
      "type": "function"
    },
    {
      "inputs": [
        {
          "internalType": "uint256",
          "name": "_idMsg",
          "type": "uint256"
        },
        {
          "internalType": "uint256",
          "name": "_idAlert",
          "type": "uint256"
        },
        {
          "internalType": "bool",
          "name": "_confirmation",
          "type": "bool"
        }
      ],
      "name": "registerWVM",
      "outputs": [],
      "stateMutability": "nonpayable",
      "type": "function"
    },
    {
      "inputs": [
        {
          "internalType": "address",
          "name": "_car",
          "type": "address"
        }
      ],
      "name": "getReputationByCar",
      "outputs": [
        {
          "internalType": "int128",
          "name": "",
          "type": "int128"
        }
      ],
      "stateMutability": "view",
      "type": "function"
    },
    {
      "inputs": [
        {
          "internalType": "uint256",
          "name": "_idMsg",
          "type": "uint256"
        }
      ],
      "name": "totalWVMByIdWM",
      "outputs": [
        {
          "internalType": "uint256",
          "name": "",
          "type": "uint256"
        }
      ],
      "stateMutability": "view",
      "type": "function"
    },
    {
      "inputs": [
        {
          "internalType": "uint256",
          "name": "_idMsg",
          "type": "uint256"
        }
      ],
      "name": "getAck",
      "outputs": [
        {
          "internalType": "int128",
          "name": "",
          "type": "int128"
        }
      ],
      "stateMutability": "view",
      "type": "function"
    },
    {
      "inputs": [
        {
          "internalType": "uint256",
          "name": "_idMsg",
          "type": "uint256"
        }
      ],
      "name": "getNack",
      "outputs": [
        {
          "internalType": "int128",
          "name": "",
          "type": "int128"
        }
      ],
      "stateMutability": "view",
      "type": "function"
    }
  ],
  "bytecode": {
    "linkReferences": {},
    "object": "60566050600b82828239805160001a6073146043577f4e487b7100000000000000000000000000000000000000000000000000000000600052600060045260246000fd5b30600052607381538281f3fe73000000000000000000000000000000000000000030146080604052600080fdfea26469706673582212207ab9a41e546207d0122a7d71e2f0082d0e7bab0f697940898afdef564b4b26c964736f6c63430008000033",
    "opcodes": "PUSH1 0x56 PUSH1 0x50 PUSH1 0xB DUP3 DUP3 DUP3 CODECOPY DUP1 MLOAD PUSH1 0x0 BYTE PUSH1 0x73 EQ PUSH1 0x43 JUMPI PUSH32 0x4E487B7100000000000000000000000000000000000000000000000000000000 PUSH1 0x0 MSTORE PUSH1 0x0 PUSH1 0x4 MSTORE PUSH1 0x24 PUSH1 0x0 REVERT JUMPDEST ADDRESS PUSH1 0x0 MSTORE PUSH1 0x73 DUP2 MSTORE8 DUP3 DUP2 RETURN INVALID PUSH20 0x0 ADDRESS EQ PUSH1 0x80 PUSH1 0x40 MSTORE PUSH1 0x0 DUP1 REVERT INVALID LOG2 PUSH5 0x6970667358 0x22 SLT KECCAK256 PUSH27 0xB9A41E546207D0122A7D71E2F0082D0E7BAB0F697940898AFDEF56 0x4B 0x4B 0x26 0xC9 PUSH5 0x736F6C6343 STOP ADDMOD STOP STOP CALLER "
  },
  "gas": 259823
}